:100000000C942A000C9447000C9447000C94470071
:100010000C9447000C942B0E0C9447000C94470052
:100020000C9447000C9447000C94080D0C94470066
:100030000C9447000C9447000C9447000C94470024
:100040000C9447000C9447000C9447000C94470014
:100050000C94470011241FBECFE5D8E0DEBFCDBF12
:1000600011E0A0E6B0E0E8EFFDE102C005900D92DE
:10007000A239B107D9F711E0A2E9B1E001C01D92A0
:10008000A03AB107E1F70E944F0B0C94FA0E0C94C2
:100090000000EF92FF920F931F937B018C0120E0F1
:1000A00030E040E05FE40E94190388238CF0C8012F
:1000B000B70120E030E040E05FE40E94C1010E940F
:1000C000A7039B01AC01205030404040504806C07F
:1000D000C801B7010E94A7039B01AC01B901CA0185
:1000E0001F910F91FF90EF900895A0E0B0E0EBE733
:1000F000F0E00C94C30EDC012B01FA019C919230CC
:1001000008F439C1EB018881823008F433C194309E
:1001100069F4843009F02FC111969C91119789815F
:10012000981709F428C1A8E8B0E025C1843009F483
:1001300021C18230A9F4923009F01DC19A01AD01AC
:1001400088E0EA010990AE01E90109929E0181501F
:10015000C1F7E201898111969C918923818308C1AD
:10016000923009F407C112962D903C901397EB0141
:100170008A819B811496AD90BD90CD90DC901797AD
:10018000EC80FD800E811F819101281B390BB90184
:1001900037FF04C066277727621B730B6032710537
:1001A0000CF061C0121613066CF537014801062EDB
:1001B00004C096948794779467940A94D2F721E0C8
:1001C00030E040E050E004C0220F331F441F551FB1
:1001D0006A95D2F721503040404050402E213F21B7
:1001E00040235123211531054105510521F021E01E
:1001F00030E040E050E079018A01E628F72808293C
:1002000019293CC0232BD1F1260E371E350146019A
:10021000062E04C096948794779467940A94D2F734
:1002200021E030E040E050E004C0220F331F441FC3
:10023000551F6A95D2F721503040404050402A2146
:100240003B214C215D21211531054105510521F04E
:1002500021E030E040E050E059016A01A628B728CB
:10026000C828D9280BC0821593052CF01C01AA249C
:10027000BB24650103C0EE24FF24870111969C91E5
:10028000D20111968C91981709F445C0992339F041
:10029000A80197012A193B094C095D0906C0A6016E
:1002A00095012E193F09400B510B57FD08C01182D3
:1002B0003382228224833583468357831DC081E0A5
:1002C00081833382228288279927DC01821B930B4A
:1002D000A40BB50B84839583A683B7830DC0220F2F
:1002E000331F441F551F24833583468357838281E0
:1002F000938101979383828324813581468157813D
:10030000DA01C9010197A109B1098F5F9F4FAF4F72
:10031000BF4328F30BC0918333822282EA0CFB1C7B
:100320000C1D1D1DE482F5820683178383E0808304
:10033000248135814681578157FF1AC0C901AA27F8
:1003400097FDA095BA2F81709070A070B0705695EF
:10035000479537952795822B932BA42BB52B848318
:100360009583A683B7838281938101969383828349
:10037000DF0101C0D201CD01CDB7DEB7E2E10C94BF
:10038000DF0EA0E2B0E0E7ECF1E00C94CF0E698361
:100390007A838B839C832D833E834F835887E9E048
:1003A000EE2EF12CEC0EFD1ECE010196B7010E943F
:1003B0001F058E010F5E1F4FCE010596B8010E94EA
:1003C0001F058A8991E089278A8BC701B801AE0190
:1003D000475E5F4F0E9475000E944A04A096E6E0C7
:1003E0000C94EB0EA0E2B0E0E8EFF1E00C94CF0E3D
:1003F00069837A838B839C832D833E834F835887C5
:10040000F9E0EF2EF12CEC0EFD1ECE010196B701A6
:100410000E941F058E010F5E1F4FCE010596B80189
:100420000E941F05C701B801AE01475E5F4F0E94E1
:1004300075000E944A04A096E6E00C94EB0EA0E240
:10044000B0E0E5E2F2E00C94C30E69837A838B831B
:100450009C832D833E834F835887CE010196BE0136
:10046000675F7F4F0E941F05CE010596BE016F5E3C
:100470007F4F0E941F059985923088F089898230CC
:10048000C8F0943019F4823051F404C0843029F457
:10049000923081F488E890E0C6C0923049F420E0C0
:1004A0009A858A89981321E02A87CE010996BBC0D4
:1004B000823049F420E09A858A89981321E02A8BBA
:1004C000CE014196B0C02D843E844F8458886D88FB
:1004D0007E888F88988CEE24FF248701AA24BB2471
:1004E000650140E050E060E070E0E0E0F0E0C10174
:1004F00081709070892BE9F0E60CF71C081D191D1E
:100500009A01AB012A0D3B1D4C1D5D1D80E090E062
:10051000A0E0B0E0E614F7040805190520F481E036
:1005200090E0A0E0B0E0BA01A901480F591F6A1F8E
:100530007B1FAA0CBB1CCC1CDD1C97FE08C081E0F5
:1005400090E0A0E0B0E0A82AB92ACA2ADB2A3196B6
:10055000E032F10549F0660C771C881C991C569412
:10056000479437942794C3CFFA85EA892B893C892D
:100570008B859C85280F391F2E5F3F4F17C0CA01FE
:1005800081709070892B61F016950795F794E79428
:1005900080E090E0A0E0B0E8E82AF92A0A2B1B2BC3
:1005A00076956795579547952F5F3F4F77FDE7CF36
:1005B0000CC0440F551F661F771F17FD4160EE0CDE
:1005C000FF1C001F111F21503040403090E05907A0
:1005D00090E0690790E4790760F32B8F3C8FDB0193
:1005E000CA018F779070A070B07080349105A1051A
:1005F000B10561F447FD0AC0E114F10401051105DC
:1006000029F0405C5F4F6F4F7F4F40781A8EFE1786
:1006100011F081E08A8F4D8F5E8F6F8F78A383E01A
:10062000898FCE0149960E944A04A096E2E10C947B
:10063000DF0EA8E1B0E0EFE1F3E00C94CF0E6983A8
:100640007A838B839C832D833E834F83588789E0F5
:10065000E82EF12CEC0EFD1ECE010196B7010E9492
:100660001F058E010F5E1F4FCE010596B8010E9437
:100670001F058985823040F08989823028F0C701C2
:10068000B8010E94970501C08FEF6896E6E00C94D0
:10069000EB0EA8E0B0E0EFE4F3E00C94CC0E9B018D
:1006A000AC0183E08983DA01C9018827B7FD83950E
:1006B0009927AA27BB27B82E2115310541055105D9
:1006C00019F482E089833AC08823A9F0203080E0C1
:1006D000380780E0480780E8580729F460E070E0B8
:1006E00080E09FEC30C0EE24FF248701E21AF30A79
:1006F000040B150B02C079018A018EE1C82ED12CA2
:10070000DC82CB82ED82FE820F831887C801B7019D
:100710000E94FB0301971816190684F4082E04C0E2
:10072000EE0CFF1C001F111F0A94D2F7ED82FE820F
:100730000F831887C81AD90ADC82CB82BA82CE010D
:1007400001960E944A042896E9E00C94E80EACE079
:10075000B0E0EDEAF3E00C94D30E69837A838B83E7
:100760009C83CE010196BE016B5F7F4F0E941F05E7
:100770008D81823061F1823050F1843021F48E819C
:10078000882351F12EC02F81388537FD20C06E811E
:100790002F3131051CF06623F9F023C08EE190E083
:1007A000821B930B29853A854B855C8504C0569541
:1007B0004795379527958A95D2F76623B1F05095DE
:1007C0004095309521953F4F4F4F5F4F0EC020E031
:1007D00030E040E050E009C02FEF3FEF4FEF5FE720
:1007E00004C020E030E040E050E8B901CA012C9696
:1007F000E2E00C94EF0EEF92FF920F931F937B01B8
:100800008C0180E0E81680E0F80681E0080780E0CF
:10081000180788F48FEFE816F1040105110531F08F
:1008200028F088E090E0A0E0B0E017C080E090E021
:10083000A0E0B0E012C080E0E81680E0F80680E0BA
:10084000080781E0180728F088E190E0A0E0B0E018
:1008500004C080E190E0A0E0B0E020E230E040E0C1
:1008600050E0281B390B4A0B5B0B04C0169507950B
:10087000F794E7948A95D2F7F701E057FF4F80810C
:10088000281B310941095109C9011F910F91FF909E
:10089000EF900895DF92EF92FF920F931F93FC0168
:1008A000E480F58006811781D1808081823048F410
:1008B00080E090E0A0E1B0E0E82AF92A0A2B1B2BA7
:1008C000A5C0843009F49FC0823021F4EE24FF24B7
:1008D000870105C0E114F1040105110519F4E0E0F8
:1008E000F0E096C0628173819FEF623879070CF067
:1008F0005BC022E83FEF261B370B2A3131052CF075
:1009000020E030E040E050E02AC0B801A701022E0C
:1009100004C076956795579547950A94D2F781E07C
:1009200090E0A0E0B0E004C0880F991FAA1FBB1F91
:100930002A95D2F70197A109B1098E219F21A02301
:10094000B1230097A105B10521F081E090E0A0E07E
:10095000B0E09A01AB01282B392B4A2B5B2BDA0133
:10096000C9018F779070A070B07080349105A10597
:10097000B10539F427FF09C0205C3F4F4F4F5F4F4F
:1009800004C0215C3F4F4F4F5F4FE0E0F0E020306C
:10099000A0E03A07A0E04A07A0E45A0710F0E1E01F
:1009A000F0E079018A0127C06038710564F5FB0128
:1009B000E158FF4FD801C7018F779070A070B070D9
:1009C00080349105A105B10539F4E7FE0DC080E43E
:1009D00090E0A0E0B0E004C08FE390E0A0E0B0E0E1
:1009E000E80EF91E0A1F1B1F17FF05C01695079575
:1009F000F794E794319687E016950795F794E79476
:100A00008A95D1F705C0EE24FF248701EFEFF0E0CF
:100A10006E2F679566276795902F9F77D794DD2473
:100A2000D7948E2F8695492F462B582F5D29B701D5
:100A3000CA011F910F91FF90EF90DF900895FC0184
:100A4000DB01408151812281622F6F7770E0221F8C
:100A50002227221F9381892F880F822B282F30E095
:100A6000991F9927991F11969C931197211531056C
:100A7000A9F5411551056105710511F482E037C0F2
:100A800082E89FEF13969C938E9312979A01AB0185
:100A900067E0220F331F441F551F6A95D1F783E08B
:100AA0008C930DC0220F331F441F551F12968D913A
:100AB0009C911397019713969C938E9312972030D5
:100AC00080E0380780E0480780E4580758F3149620
:100AD0002D933D934D935C93179708952F3F3105C8
:100AE00079F4411551056105710519F484E08C9381
:100AF000089564FF03C081E08C9312C01C9210C063
:100B00002F57304013963C932E93129783E08C938B
:100B100087E0440F551F661F771F8A95D1F77064D1
:100B200014964D935D936D937C93179708951F933F
:100B3000DC01FB019C91923008F447C08081823037
:100B400008F443C0943051F411961C91843099F507
:100B50008181682F70E0611B71093FC0843021F0F2
:100B6000923031F48230B9F18181882389F12DC02E
:100B700011961C9111978230F1F081811817D9F4E8
:100B800012962D913C91139782819381821793073E
:100B900094F028173907BCF014968D919D910D9013
:100BA000BC91A02D248135814681578128173907B2
:100BB0004A075B0718F4112341F00AC08217930714
:100BC000A407B50740F4112319F061E070E005C0F7
:100BD0006FEF7FEF02C060E070E0CB011F910895DE
:100BE000813059F0813028F0823049F0833019F09B
:100BF00008956ABB089561BB089567BB089564BBFF
:100C00000895813059F0813028F0823049F08330E6
:100C100019F008956BBB089562BB089568BB0895F1
:100C200065BB0895813061F0813030F0823051F041
:100C3000833021F080E0089589B3089580B308954A
:100C400086B3089583B30895813061F0813030F028
:100C5000823051F0833021F080E008958BB3089505
:100C600082B3089588B3089585B30895813029F13A
:100C7000813028F0823079F1833081F0089541305D
:100C800009F44DC02AB381E090E002C0880F991F9B
:100C90006A95E2F7809582238ABB0895413009F472
:100CA00049C021B381E090E002C0880F991F6A9586
:100CB000E2F78095822381BB0895413029F127B363
:100CC00081E090E002C0880F991F6A95E2F7809555
:100CD000822387BB0895413061F024B381E090E026
:100CE00002C0880F991F6A95E2F78095822384BB22
:100CF000089524B381E090E002C0880F991F6A959F
:100D0000E2F7282B24BB089527B381E090E002C0CE
:100D1000880F991F6A95E2F7282B27BB08952AB3FD
:100D200081E090E002C0880F991F6A95E2F7282BB6
:100D30002ABB089521B381E090E002C0880F991F7B
:100D40006A95E2F7282B21BB0895813029F1813083
:100D500028F0823079F1833081F00895413009F430
:100D60004DC02BB381E090E002C0880F991F6A95B7
:100D7000E2F7809582238BBB0895413009F449C086
:100D800022B381E090E002C0880F991F6A95E2F7D4
:100D90008095822382BB0895413029F128B381E0F8
:100DA00090E002C0880F991F6A95E2F78095822330
:100DB00088BB0895413061F025B381E090E002C026
:100DC000880F991F6A95E2F78095822385BB089565
:100DD00025B381E090E002C0880F991F6A95E2F781
:100DE000282B25BB089528B381E090E002C0880F2E
:100DF000991F6A95E2F7282B28BB08952BB381E051
:100E000090E002C0880F991F6A95E2F7282B2BBB50
:100E1000089522B381E090E002C0880F991F6A957F
:100E2000E2F7282B22BB08958130D1F0813030F0D9
:100E30008230F9F0833059F080E0089589B390E072
:100E400002C0959587956A95E2F78170089580B301
:100E500090E002C0959587956A95E2F781700895B4
:100E600086B390E002C0959587956A95E2F7817008
:100E7000089583B390E002C0959587956A95E2F74F
:100E8000817008958130D1F0813030F08230F9F0F6
:100E9000833059F080E008958BB390E002C09595BF
:100EA00087956A95E2F78170089582B390E002C059
:100EB000959587956A95E2F78170089588B390E0DB
:100EC00002C0959587956A95E2F78170089585B37C
:100ED00090E002C0959587956A95E2F78170089534
:100EE000FF920F931F9380E064E040E00E94A5060C
:100EF00080E064E040E00E94360680E065E040E08B
:100F00000E94A50680E065E040E00E94360680E091
:100F100066E040E00E94A50680E066E040E00E94B6
:100F2000360680E067E040E00E94A50680E067E0CA
:100F300040E00E94360681E061E040E00E94A506A4
:100F400081E064E041E00E94A50681E063E041E0C9
:100F50000E94A50611E0812F8A95F1F780E067E0F5
:100F60000E941407F82E81E063E040E00E94A5068D
:100F700002E0802F8A95F1F781E063E041E00E9472
:100F8000A5061A95F1F781E063E040E00E94A5060E
:100F90000A95F1F780E064E041E00E94360680E0C7
:100FA00065E041E00E94360680E066E041E00E9494
:100FB000360680E067E041E00E9436068F2D1F91E3
:100FC0000F91FF900895CF92DF92EF92FF920F93CF
:100FD0001F93E82EC62E14E032E0F32E183068F48A
:100FE00080E0612F40E00E94A50680E0612F40E094
:100FF0000E9436061F5F183098F381E061E040E000
:101000000E94A50681E064E041E00E94A50681E01F
:1010100063E041E00E94A50601E0802F8A95F1F788
:1010200080E067E00E941407182F81E063E040E051
:101030000E94A50622E0D22E8F2D8A95F1F781E03D
:1010400063E041E00E94A506802F8A95F1F781E0D8
:1010500063E040E00E94A5068F2D8A95F1F780E0BD
:1010600064E041E00E94360680E065E041E00E94D5
:10107000360680E066E041E00E94360680E067E0E8
:1010800041E00E943606112311F014E0A9CF81E05F
:1010900061E04C2D0E94A50681E064E040E00E94E2
:1010A000A50681E063E041E00E94A50680E00E9481
:1010B00024066E2D607F8F70682B80E00E940106F1
:1010C000802F8A95F1F781E063E040E00E94A50659
:1010D0008D2D8A95F1F781E061E04C2D0E94A506E7
:1010E00081E064E040E00E94A50681E063E041E029
:1010F0000E94A50680E00E942406E29490EFE92277
:10110000682F6F706E2980E00E940106802F8A95FB
:10111000F1F781E063E040E00E94A5068D2D8A95FD
:10112000F1F71F910F91FF90EF90DF90CF9008950E
:101130000F931F938C01862F8873806460E00E9458
:10114000E307F801808161E00E94E307F8018181F3
:1011500061E00E94E307F801828161E00E94E307F9
:10116000F801838161E00E94E307F801848161E076
:101170000E94E307F801858161E00E94E307F8011E
:10118000868161E00E94E307F801878161E00E94A7
:10119000E3071F910F9108951F93CF93DF93EC0105
:1011A000888110E061E00E94E3071F5FFE01E10F0C
:1011B000F11D80818823B1F7DF91CF911F910895B0
:1011C000CF92DF92EF92FF920F931F93DF93CF9313
:1011D00000D000D00F92CDB7DEB79C01009709F484
:1011E00057C044E0F42E6E010894C11CD11C01C00C
:1011F000F82E0F2D10E0F601E00FF11FC9016AE093
:1012000070E00E94AF0E805D8083C9016AE070E0EB
:101210000E94AF0E9B018F2D81506115710541F722
:10122000EF2C84E08F1518F40DC00F2D10E00C0D7D
:101230001D1DF801808161E00E94E307F394F4E052
:10124000FF1598F710E083E661E00E94E3071F5F57
:10125000E12FF0E0E05AFF4F80818823A9F782E078
:101260008E1540F41E2D125080E261E00E94E307CB
:101270001150D1F70F900F900F900F900F90CF91CA
:10128000DF911F910F91FF90EF90DF90CF90089525
:1012900080E361E00E94E307EDCFFF920F931F937D
:1012A00080E064E040E00E94A50680E064E041E068
:1012B0000E94360680E065E040E00E94A50680E0DE
:1012C00065E041E00E94360680E066E040E00E9472
:1012D000A50680E066E041E00E94360680E067E017
:1012E00040E00E94A50680E067E041E00E943606EB
:1012F00081E061E040E00E94A50681E061E041E01C
:101300000E94360681E063E040E00E94A50681E08D
:1013100063E041E00E94360681E064E040E00E9424
:10132000A50681E064E041E00E94360680E09AEF85
:101330000197F1F781E064E040E00E94A50681E0BA
:1013400061E040E00E94A50681E063E041E00E9488
:10135000A50680E064E041E00E94A50680E065E02B
:1013600041E00E94A50680E066E040E00E94A506FC
:1013700080E067E040E00E94A50611E0812F8A9599
:10138000F1F781E063E040E00E94A50680EA91E485
:101390000197F1F781E063E041E00E94A506812F0B
:1013A0008A95F1F781E063E040E00E94A50688EBB2
:1013B00091E00197F1F781E063E041E00E94A5062A
:1013C000812F8A95F1F781E063E040E00E94A50655
:1013D00002E0802F8A95F1F781E063E041E00E940E
:1013E000A50680E064E040E00E94A5061A95F1F7AA
:1013F00081E063E040E00E94A5060A95F1F788E2EB
:1014000060E00E94E30788E060E00E94E30781E07B
:1014100060E00E94E30786E060E00E94E30714E0DA
:1014200052E0F52E183068F480E0612F40E00E9411
:10143000A50680E0612F40E00E9436061F5F18304D
:1014400098F381E061E040E00E94A50681E064E05D
:1014500041E00E94A50681E063E041E00E94A5060C
:1014600011E0812F8A95F1F780E067E00E94140770
:10147000082F81E063E040E00E94A5068F2D8A9549
:10148000F1F781E063E041E00E94A5061A95F1F7CB
:1014900081E063E040E00E94A5068F2D8A95F1F778
:1014A00080E064E041E00E94360680E065E041E0D3
:1014B0000E94360680E066E041E00E94360680E049
:1014C00067E041E00E943606002311F014E0ACCF43
:1014D0001F910F91FF9008958D9A1DBC1CBC87E849
:1014E00093E197BD86BD82E88FBD8BE18EBD0895E7
:1014F000AA2797FDA095BA2FBC01CD010E944903F0
:1015000022E73CE147E250E40E941F0220E030E085
:1015100042E053E40E94F2010E9449007BBD6ABD93
:10152000089580E060E040E020E00E94C80C84E183
:1015300064E144E12CE00E94BF0C089580E060E08B
:1015400041E021E00E94C80C83E263E243E223E22F
:101550000E94BF0C089581E061E040E020E00E941D
:10156000C80C83E263E243E223E20E94BF0C0895C9
:1015700081E061E041E021E00E94C80C84E164E187
:1015800044E12CE00E94BF0C08951F9381E08093FA
:101590009601809195018F5F8093950180E060E0D6
:1015A00040E020E00E94BF0C84EB90E00E94780AAB
:1015B00020E030E040E951E0CA010197F1F72F5FE8
:1015C0003F4F83E128383807B9F70E944E0E182F95
:1015D00080E090E00E94780A20E030E040E951E0AD
:1015E000CA010197F1F72F5F3F4F83E12838380791
:1015F000B9F70E944E0E811710F41531F0F4181748
:1016000010F4853190F580919501843009F445C03E
:1016100010E08AE590E00E94780A20E030E040E99E
:1016200051E0CA010197F1F72F5F3F4F8BE0283B54
:101630003807B9F7812F1F91089581E080939801B1
:101640008AE590E00E94780A20E030E040E951E02D
:10165000CA010197F1F72F5F3F4F8BE0283B380716
:10166000B9F713E0812F1F91089581E080939701CE
:101670008AE590E00E94780A20E030E040E951E0FD
:10168000CA010197F1F72F5F3F4F8BE0283B3807E6
:10169000B9F712E0812F1F91089514E0BACF0F938C
:1016A0001F93CF93DF938FB780688FBF0E94970EF1
:1016B0000E946C0A0E944D098CE060E00E94E307E2
:1016C0000E947B0D81E061E041E021E00E94C80CB6
:1016D00080E060E040E020E00E94BF0C80E063E03A
:1016E00040E00E94A50601E0C0E9D1E00E944E0E54
:1016F000909394018093930180E860E00E94E30757
:1017000080919301909194010E94E00883EC60E045
:101710000E94E30720919301309194012531310516
:1017200008F07EC080919601882309F079C08091ED
:101730009701882309F074C080919801882309F0EB
:101740006FC01092920100939601809195018F5F76
:101750008093950180E060E040E020E00E94BF0CB3
:1017600084EB90E00E94780A20E030E0CE010197FF
:10177000F1F72F5F3F4F83E128383807B9F70E9410
:101780004E0E182F80E090E00E94780A20E030E0B2
:10179000CE010197F1F72F5F3F4F83E128383807DB
:1017A000B9F70E944E0E811708F0BBC0153108F43E
:1017B000B8C0009398018AE590E00E94780A20E082
:1017C00030E0CE010197F1F72F5F3F4F8BE0283BD0
:1017D0003807B9F713E0109392018BE690E00E946E
:1017E000CC0820919301309194012A31310560F0A9
:1017F00080919701882341F480919801882321F4F6
:10180000109296010093920120E030E0CE01019702
:10181000F1F72F5F3F4F81E0243F3807B9F766CFDC
:1018200080919201823009F45AC08330D0F4882329
:1018300009F489CF8130C9F681E061E041E021E01F
:101840000E94C80C84E164E144E12CE00E94BF0CDA
:1018500083E690E00E94CC0820919301309194019E
:10186000C4CF8330D1F0843009F0BFCF80E060E096
:1018700040E020E00E94C80C84E164E144E12CE0F7
:101880000E94BF0C1092950180E890E00E94CC0865
:101890002091930130919401A8CF80E060E041E075
:1018A00021E00E94C80C83E263E243E223E20E944B
:1018B000BF0C20E030E0CE010197F1F72F5F3F4FE2
:1018C00082E3283C3807B9F71092980188E790E046
:1018D0000E94CC08209193013091940186CF81E041
:1018E00061E040E020E00E94C80C83E263E243E252
:1018F00023E20E94BF0C20E030E0CE010197F1F717
:101900002F5F3F4F82E3283C3807B9F710929701C9
:1019100080E790E00E94CC082091930130919401DF
:1019200064CF1817A8F4853198F0009397018AE5E1
:1019300090E00E94780A20E030E0CE010197F1F7B4
:101940002F5F3F4F8BE0283B3807B9F712E043CFBA
:1019500080919501843089F010E08AE590E00E9442
:10196000780A20E030E0CE010197F1F72F5F3F4F7A
:101970008BE0283B3807B9F72ECF14E0EECF8093E9
:10198000990160939A0140939B0120939C010895D3
:10199000DF92EF92FF920F931F93182FF62EE42EF3
:1019A000D22E82E060E00E94010682E063E0412FD7
:1019B0000E94A50601E0102782E064E0412F0E940A
:1019C000A50682E065E04F2D0E94A506F02682E084
:1019D00066E04F2D0E94A50682E060E04E2D0E9439
:1019E000A506E02682E061E04E2D0E94A50682E079
:1019F00062E04D2D0E94A5060D2582E067E0402F94
:101A00000E94A5061F910F91FF90EF90DF9008951F
:101A10001F920F920FB60F9211242F933F934F9363
:101A20005F936F937F938F939F93AF93BF93EF9346
:101A3000FF939091990180919D01891708F055C0FD
:101A400083E064E041E00E94A50690919A018091B4
:101A50009D01891708F043C083E063E041E00E94E4
:101A6000A50690919B0180919D01891790F583E0D7
:101A700061E041E00E94A50690919C0180919D014A
:101A8000891708F583E060E041E00E94A506809197
:101A90009D018F5F80939D0180919D01823311F4A0
:101AA00010929D01FF91EF91BF91AF919F918F9106
:101AB0007F916F915F914F913F912F910F900FBE4A
:101AC0000F901F90189583E060E040E00E94A5060B
:101AD000DECF83E061E040E00E94A506CDCF83E049
:101AE00063E040E00E94A506BCCF83E064E040E0F4
:101AF0000E94A506AACF83E064E041E00E9436067A
:101B000082E063E041E00E94360682E064E041E06A
:101B10000E94360683E063E041E00E94360682E0E0
:101B200065E041E00E94360682E066E041E00E9406
:101B3000360683E061E041E00E94360682E060E024
:101B400041E00E94360682E061E041E00E943606F4
:101B500083E060E041E00E94360682E062E041E01E
:101B60000E94360682E067E041E00E94360688E087
:101B70000E94C50D80E80E94E30D81E061E00E94B3
:101B8000E70D83E00E94CF0D089593B7977B982BC4
:101B900093BF089595B5977B982B95BD089593B7FE
:101BA000987F982B93BF089595B5987F982B95BDF6
:101BB000089593B79F7C982B93BF089595B59F7C0C
:101BC000982B95BD08958CBF089583BD089599B74E
:101BD00029B730E0082E02C0359527950A94E2F720
:101BE0002170307070E02627372702C0220F331F84
:101BF0008A95E2F7922799BF089549B729B790E0EF
:101C0000069630E0082E02C0359527950A94E2F733
:101C10002170307070E02627372702C0220F331F53
:101C20008A95E2F7422749BF089582BF089584BD8F
:101C3000089582B7089584B5089588B7816088BFF4
:101C400088B7826088BF089588B7806488BF88B7E6
:101C5000806888BF08951F920F920FB60F921124CB
:101C60008F939F9380919E0190919F0101969093F5
:101C70009F0180939E0180919E0190919F010A9700
:101C800031F489E090E090939F0180939E019F91B1
:101C90008F910F900FBE0F901F901895EF92FF92AB
:101CA0000F931F9381E060E00E94E70D10929F0167
:101CB00010929E0181E067E041E00E94A50685E365
:101CC0008A95F1F781E067E040E00E94A50681E097
:101CD00066E00E9414078823D1F384E00E94D40DAB
:101CE00081E066E00E9414078823D1F70E941B0E52
:101CF000E82EFF2480E00E94D40D80E00E94170EA1
:101D000000919E0110919F0181E061E00E94E70D2A
:101D1000102F0027C701800F911F6FE070E00E9415
:101D2000AF0ECB011F910F91FF90EF90089581E0CE
:101D300066E040E00E94360681E067E041E00E94F4
:101D4000360680E00E94CA0D80E00E94D40D80E03B
:101D50000E94170E80E061E00E94FD0D0895AA1B0D
:101D6000BB1B51E107C0AA1FBB1FA617B70710F086
:101D7000A61BB70B881F991F5A95A9F780959095B8
:101D8000BC01CD0108952F923F924F925F926F92C6
:101D90007F928F929F92AF92BF92CF92DF92EF92FB
:101DA000FF920F931F93CF93DF93CDB7DEB7CA1B7C
:101DB000DB0B0FB6F894DEBF0FBECDBF09942A88A7
:101DC000398848885F846E847D848C849B84AA844F
:101DD000B984C884DF80EE80FD800C811B81AA81DC
:101DE000B981CE0FD11D0FB6F894DEBF0FBECDBFA7
:081DF000ED010895F894FFCF06
:101DF800636D00466F72776172640053746F700090
:101E080052696768742020004C65667420202000A1
:101E180052657665727365000000000000000000DE
:101E28000001020203030303040404040404040479
:101E3800050505050505050505050505050505054A
:101E4800060606060606060606060606060606062A
:101E5800060606060606060606060606060606061A
:101E680007070707070707070707070707070707FA
:101E780007070707070707070707070707070707EA
:101E880007070707070707070707070707070707DA
:101E980007070707070707070707070707070707CA
:101EA80008080808080808080808080808080808AA
:101EB800080808080808080808080808080808089A
:101EC800080808080808080808080808080808088A
:101ED800080808080808080808080808080808087A
:101EE800080808080808080808080808080808086A
:101EF800080808080808080808080808080808085A
:101F08000808080808080808080808080808080849
:101F18000808080808080808080808080808080839
:021F28005A005D
:00000001FF
